:100000000C9438010C9469010C9469010C946901F9
:100010000C9469010C9469010C9469010C946901B8
:100020000C9469010C9469010C9469010C946901A8
:100030000C9469010C9469010C9469010C94690198
:100040000C9469010C9469010C9469010C94690188
:100050000C9469010C9469010C9469010C94DF04FF
:100060000C9469010C9453050C9429050C946901B6
:100070000C9469010C9469010C9469010C94690158
:100080000C9469010C9469010C9469010C94690148
:100090000C9469010C9469010C9469010C94690138
:1000A0000C9469010C9469010C9469010C94690128
:1000B0000C9469010C9469010C9469010C94690118
:1000C0000C9469010C9469010C9469010C94690108
:1000D0000C9469010C9469010C9469010C946901F8
:1000E0000C9469010C943E030C9493010C94030E40
:1000F0000C94A4010C9497010C9484030C94C401F7
:100100000C94DB020C94AE020C9489010C94D10384
:100110000C94C9010C94B2010C944C030C94B601DC
:100120000C94CE010C94AE010C94BC010C94EA0228
:100130000C94CA010C949B010C94A8010C94C0016E
:100140000C9489050C949E010C948F0100002100F1
:10015000240027002A002D00300033000101000098
:10016000040107010A0100002200250028002B00DD
:100170002E003100340002010000050108010B01CE
:10018000000020002300260029002C002F00320050
:100190000001000003010601090105050505070529
:1001A00008080808020202020A0A080804040404F3
:1001B000010101010101010103030303030303031F
:1001C000040707070C0C0C0C0C0C0C0C02020202AE
:1001D00006060606060606060B0B0B0B0B0B0B0B97
:1001E0000102102020080810204010204080020149
:1001F000020108040201010204081020408080402E
:10020000201008040201800402018040201008042C
:1002100002010804020101020408102040800102CA
:1002200004081020408000000A0B02090C0D0E0883
:1002300007030401000000000000000000000000AF
:1002400000000000000000000000000000000000AE
:10025000000012111000000000000000000000006B
:100260000000000000000000000000008905030EEF
:1002700011241FBECFEFD1E2DEBFCDBF00E00CBF27
:1002800023E0A6EDB2E001C01D92A838B207E1F765
:1002900012E0A0E0B2E0EAE8F0E200E00BBF02C04A
:1002A00007900D92A63DB107D9F711E0C7E3D1E061
:1002B00000E006C021970109802FFE010E940C0E6C
:1002C000C633D10780E00807A9F70E9406060C9400
:1002D00033100C9400008150823108F05AC0E82F8E
:1002E000F0E08827E958FE4F8F4F0C940C0E9701D1
:1002F0009B0189018F019301C9019E01A401A801FD
:10030000AE01B201B601BC01C001C901C401CA01FC
:10031000CE01809180008F77809380000895809136
:1003200080008F7DF9CF80918000877FF5CF84B5E5
:100330008F7784BD089584B58F7DFBCF8091B00009
:100340008F778093B00008958091B0008F7DF9CFB2
:10035000809190008F778093900008958091900015
:100360008F7DF9CF80919000877FF5CF8091A0009D
:100370008F778093A00008958091A0008F7DF9CFA2
:100380008091A000877FF5CF809120018F778093A7
:1003900020010895809120018F7DF9CF8091200167
:1003A000877FF5CFCF93DF93EEE2F2E08491E8EE22
:1003B000F1E0D491E2EAF1E0C491CC23A1F0811103
:1003C0000E946B01EC2FF0E0EE0FFF1FE058FE4F94
:1003D000A591B491EC91ED2381E090E009F480E0E7
:1003E000DF91CF91089580E090E0FACF1F93CF93F3
:1003F000DF93282F30E0F901EA5DFD4F8491F90188
:10040000E052FE4FD491F901E656FE4FC491CC2341
:10041000A9F0162F81110E946B01EC2FF0E0EE0F76
:10042000FF1FEA59FE4FA591B4918FB7F894EC9154
:10043000111108C0D095DE23DC938FBFDF91CF91DF
:100440001F910895DE2BF8CFCF93DF9390E0FC014E
:10045000E052FE4F249186569E4FFC0184918823E2
:10046000D1F090E0880F991FFC01E45BFE4FA5914D
:10047000B491FC01EA59FE4FC591D491623071F4F8
:100480009FB7F8943C91822F809583238C93E881C9
:100490002E2B28839FBFDF91CF9108958FB7F894BB
:1004A000EC912E2B2C938FBFF6CF3FB7F894809111
:1004B000D7029091D802A091D902B091DA0226B564
:1004C000A89B05C02F3F19F00196A11DB11D3FBF8C
:1004D000BA2FA92F982F8827BC01CD01620F711D5B
:1004E000811D911D42E0660F771F881F991F4A9555
:1004F000D1F708958F929F92AF92BF92CF92DF92E1
:10050000EF92FF926B017C010E9455024B015C014E
:10051000C114D104E104F104B9F00E945502681934
:1005200079098A099B09683E73408105910580F32A
:1005300021E0C21AD108E108F10888EE880E83E0B4
:10054000981EA11CB11CE4CFFF90EF90DF90CF90DC
:10055000BF90AF909F908F9008950895AF92BF92F3
:10056000CF92DF92EF92FF920F931F93CF93DF937F
:100570006C017B018B01040F151FEB015E01AE18AE
:10058000BF08C017D10759F06991D601ED91FC91D0
:100590000190F081E02DC6011995892B79F7C501ED
:1005A000DF91CF911F910F91FF90EF90DF90CF904F
:1005B000BF90AF900895FC01538D448D252F30E0FE
:1005C000842F90E0821B930B541710F0CF96089560
:1005D00001970895FC01918D828D981761F0A28D8D
:1005E000AE0FBF2FB11D5D968C91928D9F5F9F7353
:1005F000928F90E008958FEF9FEF08952FB7F894B2
:100600008091DB029091DC02A091DD02B091DE02CC
:100610002FBF8093E7029093E802A093E902B09382
:10062000EA028FED92E00E94EA0297FF26C02FB700
:10063000F8948091DB029091DC02A091DD02B091F0
:10064000DE022FBF4091E7025091E8026091E9027B
:100650007091EA02841B950BA60BB70B4091E30245
:100660005091E4026091E5027091E60284179507CB
:10067000A607B707B0F28FEF9FEF0895FC01918DA9
:10068000828D981731F0828DE80FF11D858D90E0F5
:1006900008958FEF9FEF0895FC01918D228D892F92
:1006A00090E0805C9F4F821B91098F73992708957A
:1006B0008FED92E00E944C0321E0892B09F420E0A9
:1006C000822F0895FC01A48DA80FB92FB11DA35A44
:1006D000BF4F2C91848D90E001968F739927848F62
:1006E000A689B7892C93A089B1898C918370806485
:1006F0008C93938D848D981306C00288F389E02D26
:1007000080818F7D80830895EF92FF920F931F93D6
:10071000CF93DF93EC0181E0888F9B8D8C8D9813B4
:100720001AC0E889F989808185FF15C09FB7F894C0
:10073000EE89FF896083E889F9898081837080640C
:1007400080839FBF81E090E0DF91CF911F910F9157
:10075000FF90EF900895F62E0B8D10E00F5F1F4F66
:100760000F731127E02E8C8D8E110CC00FB607FC75
:10077000FACFE889F989808185FFF5CFCE010E9403
:100780006203F1CFEB8DEC0FFD2FF11DE35AFF4F0C
:10079000F0829FB7F8940B8FEA89FB898081806291
:1007A000CFCFCF93DF93EC01888D8823B9F0AA894E
:1007B000BB89E889F9898C9185FD03C0808186FD1C
:1007C0000DC00FB607FCF7CF8C9185FFF2CF80816B
:1007D00085FFEDCFCE010E946203E9CFDF91CF917B
:1007E000089580E090E0892B29F00E945803811140
:1007F0000E94000080E090E0892B49F080E090E0CA
:10080000892B29F00E94000081110E94000080E0E5
:1008100090E0892B49F080E090E0892B29F00E943C
:10082000000081110E94000080E090E0892B49F0D7
:1008300080E090E0892B29F00E94000081110C9447
:100840000000089560E08BE00E94F60160E082E025
:100850000E94F60161E083E00E94F60160E084E01E
:100860000E94F60160E085E00E94F60160E086E00B
:100870000E94F60160E087E00E94F60160E089E0F6
:100880000E94F60160E08AE00C94F60160E08BE0E3
:100890000E94F60160E082E00E94F60160E083E0E1
:1008A0000E94F60160E084E00E94F60160E085E0CD
:1008B0000E94F60160E086E00E94F60160E087E0B9
:1008C0000E94F60160E089E00E94F60160E08AE0A3
:1008D0000C94F601CF93DF93FC0101900020E9F71F
:1008E0003197AF01481B590BBC018FED92E00E947C
:1008F000AE02EC0142E050E068E172E08FED92E080
:100900000E94AE028C0F9D1FDF91CF9108950E942F
:10091000D201892B91F40E9446048BE192E00E945F
:100920006A048AE392E00E946A040E9422048FED26
:1009300092E00E944C03892BC1F308952091820319
:1009400030918303232B39F421E0FC01808188233B
:1009500061F020E00AC0BC0180917E0390917F038A
:100960000E94231021E0892BA1F7822F08950F9375
:100970001F93CF93DF93EC0188819981009759F001
:100980002A813B812617370730F081E0DF91CF9134
:100990001F910F9108958B016F5F7F4F0E94390F58
:1009A000009759F0998388831B830A832C813D81AA
:1009B000232B59F7FC011082E8CF80E0E7CF1F928C
:1009C0000F920FB60F9211242F933F938F939F9303
:1009D000AF93BF938091DB029091DC02A091DD0286
:1009E000B091DE023091D60223E0230F2D3758F567
:1009F0000196A11DB11D2093D6028093DB02909336
:100A0000DC02A093DD02B093DE028091D7029091C8
:100A1000D802A091D902B091DA020196A11DB11DB0
:100A20008093D7029093D802A093D902B093DA02B0
:100A3000BF91AF919F918F913F912F910F900FBEDA
:100A40000F901F90189526E8230F0296A11DB11D47
:100A5000D2CF1F920F920FB60F9211240BB60F92A6
:100A60002F933F934F935F936F937F938F939F93B6
:100A7000AF93BF93EF93FF938FED92E00E946203D9
:100A8000FF91EF91BF91AF919F918F917F916F9166
:100A90005F914F913F912F910F900BBE0F900FBE22
:100AA0000F901F9018951F920F920FB60F9211245E
:100AB0000BB60F922F938F939F93EF93FF93E09139
:100AC000EF02F091F0028081E091F502F091F602E0
:100AD00082FD1DC090818091F8028F5F8F732091FD
:100AE000F902821741F0E091F802F0E0E152FD4F87
:100AF000958F8093F802FF91EF919F918F912F91A5
:100B00000F900BBE0F900FBE0F901F901895808115
:100B1000F2CF1092E2021092E10288EE93E0A0E0A0
:100B2000B0E08093E3029093E402A093E502B093D7
:100B3000E6028AE092E09093E0028093DF0285EC87
:100B400090E09093EC028093EB0284EC90E0909321
:100B5000EE028093ED0280EC90E09093F00280939F
:100B6000EF0281EC90E09093F2028093F10282EC2C
:100B700090E09093F4028093F30286EC90E09093DF
:100B8000F6028093F5021092F8021092F902109288
:100B9000FA021092FB0210927F0310927E031092D1
:100BA000810310928003109283031092820370E0FD
:100BB00060E08EE793E00E94B70420917E033091BD
:100BC0007F03811119C02115310519F0C9010E9457
:100BD000B00E10927F0310927E0310928303109246
:100BE000820310928103109280038DE090E0909335
:100BF0007D0380937C0308951092830310928203F7
:100C00006AE172E0C9010E942C10EFCFCF93DF930D
:100C100000D000D01F921F92CDB7DEB7789484B574
:100C2000826084BD84B5816084BD85B5826085BDE8
:100C300085B5816085BD80916E00816080936E0076
:100C40001092810080918100826080938100809168
:100C50008100816080938100809180008160809319
:100C600080008091B10084608093B1008091B000D9
:100C700081608093B00080919100826080939100A8
:100C800080919100816080939100809190008160BB
:100C9000809390008091A10082608093A100809158
:100CA000A10081608093A1008091A0008160809369
:100CB000A000809121018260809321018091210117
:100CC00081608093210180912001816080932001C7
:100CD00080917A00846080937A0080917A008260AB
:100CE00080937A0080917A00816080937A0080916D
:100CF0007A00806880937A001092C100E091EF0240
:100D0000F091F00282E08083E091EB02F091EC023E
:100D10001082E091ED02F091EE028FEC8083109250
:100D2000F702E091F302F091F40286E08083E09113
:100D3000F102F091F202808180618083E091F10202
:100D4000F091F202808188608083E091F102F0915D
:100D5000F202808180688083E091F102F091F202DA
:100D600080818F7D808361E08BE00E94240261E0BE
:100D700082E00E94240261E083E00E94240261E09C
:100D800084E00E94240261E085E00E94240261E088
:100D900086E00E94240261E087E00E94240261E074
:100DA00089E00E94240261E08AE00E94240262E05D
:100DB00088E00E9424020E9422048AE392E00E94BA
:100DC0006A048FED92E00E944C03181619060CF08D
:100DD00005C71A8219821C821B821E821D8270E046
:100DE00060E0CE0101960E94B70429813A81811109
:100DF0002EC02115310519F0C9010E94B00E1A82CA
:100E000019821E821D821C821B820E94FE0297FD97
:100E100026C08A30910519F18F8318860D811E81B5
:100E20000F5F1F4FB801CE0101960E94B7048823BF
:100E300061F329813A818D819E81BE01695F7F4F77
:100E4000820F931F0E942C101E830D83DECF1E8203
:100E50001D826AE172E0C9010E942C10D6CF8091F8
:100E60007E0390917F03009709F4B8C469817A8169
:100E70006115710509F4B0C440918003509181035C
:100E80002D813E814217530708F4A6C40E942C10FE
:100E90008D819E8190938303809382031E821D82A5
:100EA00089819A81009711F00E94B00E8CE592E042
:100EB0000E949E04882391F18AE392E00E946A04D2
:100EC0000E9446040E94870461E08BE00E94F601C4
:100ED00060E082E00E94F60160E083E00E94F6019B
:100EE00060E084E00E94F60160E085E00E94F60187
:100EF00060E086E00E94F60160E087E00E94F60173
:100F000060E089E00E94F60160E08AE00E94F6015C
:100F10008FED92E00E944C03892BA1F28FE592E0C5
:100F20000E949E04882309F449C08AE392E00E944B
:100F30006A040E9446040E9487040E94870461E0BC
:100F40008BE00E94F6016EEE72E080E090E00E947D
:100F50007A020E94870460E08BE00E94F6016EEE48
:100F600072E080E090E00E947A020E94870460E0D4
:100F700082E00E94F60160E083E00E94F60160E0FA
:100F800084E00E94F60160E085E00E94F60160E0E6
:100F900086E00E94F60160E087E00E94F60160E0D2
:100FA00089E00E94F60160E08AE00E94F6018FED80
:100FB00092E00E944C03892B09F4BDCF82E692E0B7
:100FC0000E949E04882309F449C08AE392E00E94AB
:100FD0006A040E9446040E9487040E94870460E01D
:100FE0008BE00E94F60161E082E00E94F6016EEE65
:100FF00072E080E090E00E947A020E94870460E044
:1010000082E00E94F6016EEE72E080E090E00E94C5
:101010007A020E94870460E083E00E94F60160E0AB
:1010200084E00E94F60160E085E00E94F60160E045
:1010300086E00E94F60160E087E00E94F60160E031
:1010400089E00E94F60160E08AE00E94F6018FEDDF
:1010500092E00E944C03892B09F4BDCF85E692E013
:101060000E949E04882391F18AE392E00E946A0420
:101070000E9446040E94870460E08BE00E94F60113
:1010800061E082E00E94F60160E083E00E94F601E8
:1010900060E084E00E94F60160E085E00E94F601D5
:1010A00060E086E00E94F60160E087E00E94F601C1
:1010B00060E089E00E94F60160E08AE00E94F601AB
:1010C0008FED92E00E944C03892BA1F288E692E01A
:1010D0000E949E04882391F18AE392E00E946A04B0
:1010E0000E9446040E94870461E08BE00E94F601A2
:1010F00060E082E00E94F60160E083E00E94F60179
:1011000061E084E00E94F60160E085E00E94F60163
:1011100060E086E00E94F60160E087E00E94F60150
:1011200061E089E00E94F60160E08AE00E94F60139
:101130008FED92E00E944C03892BA1F28BE692E0A6
:101140000E949E04882309F449C08AE392E00E9429
:101150006A040E9446040E94870461E084E00E94C1
:10116000F60161E089E00E94F6010E94870461E0D7
:101170008BE00E94F6016EEE72E080E090E00E944B
:101180007A020E94870460E08BE00E94F6016EEE16
:1011900072E080E090E00E947A020E94870460E0A2
:1011A00082E00E94F60160E083E00E94F60160E0C8
:1011B00085E00E94F60160E086E00E94F60160E0B2
:1011C00087E00E94F60160E08AE00E94F6018FED60
:1011D00092E00E944C03892B09F4BDCF8EE692E089
:1011E0000E949E04882309F449C08AE392E00E9489
:1011F0006A040E9446040E9487040E94870460E0FB
:101200008BE00E94F60161E084E00E94F60161E05B
:1012100089E00E94F60161E082E00E94F6016EEE34
:1012200072E080E090E00E947A020E94870460E011
:1012300082E00E94F6016EEE72E080E090E00E9493
:101240007A020E94870460E083E00E94F60160E079
:1012500085E00E94F60160E086E00E94F60160E011
:1012600087E00E94F60160E08AE00E94F6018FEDBF
:1012700092E00E944C03892B09F4BDCF81E792E0F4
:101280000E949E04882391F18AE392E00E946A04FE
:101290000E9446040E94870460E08BE00E94F601F1
:1012A00061E089E00E94F60161E082E00E94F601BF
:1012B00060E083E00E94F60161E084E00E94F601B4
:1012C00060E085E00E94F60160E086E00E94F601A1
:1012D00060E087E00E94F60160E08AE00E94F6018B
:1012E0008FED92E00E944C03892BA1F284E792E0FB
:1012F0000E949E04882391F18AE392E00E946A048E
:101300000E9446040E94870461E08BE00E94F6017F
:1013100060E082E00E94F60160E083E00E94F60156
:1013200061E084E00E94F60160E085E00E94F60141
:1013300060E086E00E94F60160E087E00E94F6012E
:1013400060E089E00E94F60160E08AE00E94F60118
:101350008FED92E00E944C03892BA1F288E792E086
:101360000E949E04882391F18AE392E00E946A041D
:101370000E9446040E94870461E08BE00E94F6010F
:1013800060E082E00E94F60160E083E00E94F601E6
:1013900061E084E00E94F60160E085E00E94F601D1
:1013A00060E086E00E94F60160E087E00E94F601BE
:1013B00060E089E00E94F60161E08AE00E94F601A7
:1013C0008FED92E00E944C03892BA1F28DE792E011
:1013D0000E949E04882309F449C08AE392E00E9497
:1013E0006A040E9446040E9487040E94870461E008
:1013F00084E00E94F60161E08BE00E94F6016EEE4F
:1014000072E080E090E00E947A020E94870460E02F
:101410008BE00E94F6016EEE72E080E090E00E94A8
:101420007A020E94870460E082E00E94F60160E098
:1014300083E00E94F60160E085E00E94F60160E032
:1014400086E00E94F60160E087E00E94F60160E01D
:1014500089E00E94F60160E08AE00E94F6018FEDCB
:1014600092E00E944C03892B09F4BDCF81E892E001
:101470000E949E04882309F449C08AE392E00E94F6
:101480006A040E9446040E9487040E94870461E067
:1014900084E00E94F60161E08AE00E94F60161E0CA
:1014A0008BE00E94F6016EEE72E080E090E00E9418
:1014B0007A020E94870460E08BE00E94F6016EEEE3
:1014C00072E080E090E00E947A020E94870460E06F
:1014D00082E00E94F60160E083E00E94F60160E095
:1014E00085E00E94F60160E086E00E94F60160E07F
:1014F00087E00E94F60160E089E00E94F6018FED2E
:1015000092E00E944C03892B09F4BDCF86E892E05B
:101510000E949E04882309F449C08AE392E00E9455
:101520006A040E9446040E9487040E94870461E0C6
:1015300084E00E94F60160E08BE00E94F60161E029
:1015400082E00E94F6016EEE72E080E090E00E9480
:101550007A020E94870460E082E00E94F6016EEE4B
:1015600072E080E090E00E947A020E94870460E0CE
:1015700083E00E94F60160E085E00E94F60160E0F1
:1015800086E00E94F60160E087E00E94F60160E0DC
:1015900089E00E94F60160E08AE00E94F6018FED8A
:1015A00092E00E944C03892B09F4BDCF8AE892E0B7
:1015B0000E949E04882309F449C08AE392E00E94B5
:1015C0006A040E9446040E9487040E94870460E027
:1015D0008BE00E94F60161E084E00E94F60161E088
:1015E0008AE00E94F60161E082E00E94F6016EEE60
:1015F00072E080E090E00E947A020E94870460E03E
:1016000082E00E94F6016EEE72E080E090E00E94BF
:101610007A020E94870460E083E00E94F60160E0A5
:1016200085E00E94F60160E086E00E94F60160E03D
:1016300087E00E94F60160E089E00E94F6018FEDEC
:1016400092E00E944C03892B09F4BDCF8FE892E011
:101650000E949E04882391F18AE392E00E946A042A
:101660000E9446040E94870460E08BE00E94F6011D
:1016700061E082E00E94F60160E083E00E94F601F2
:1016800061E084E00E94F60160E085E00E94F601DE
:1016900060E086E00E94F60160E087E00E94F601CB
:1016A00060E089E00E94F60160E08AE00E94F601B5
:1016B0008FED92E00E944C03892BA1F283E992E026
:1016C0000E949E04882391F18AE392E00E946A04BA
:1016D0000E9446040E94870460E08BE00E94F601AD
:1016E00061E082E00E94F60160E083E00E94F60182
:1016F00061E084E00E94F60160E085E00E94F6016E
:1017000060E086E00E94F60160E087E00E94F6015A
:1017100060E089E00E94F60161E08AE00E94F60143
:101720008FED92E00E944C03892BA1F288E992E0B0
:101730000E949E04882309F468C08AE392E00E9414
:101740006A040E9446040E94870410E000E0809131
:101750007C0390917D03801791070CF456C00E9482
:10176000870460E08BE00E94F60160E082E00E9466
:10177000F60161E083E00E94F60160E084E00E94EF
:10178000F60161E085E00E94F6016EEE72E080E015
:1017900090E00E947A020E94870460E085E00E9447
:1017A000F6016EEE72E080E090E00E947A020E9404
:1017B000870460E086E00E94F60160E087E00E9416
:1017C000F60160E089E00E94F60160E08AE00E9494
:1017D000F6010F5F1F4FBBCF0E94B00E89819A8127
:1017E00090937F0380937E038B819C8190938103F0
:1017F000809380038D819E819093830380938203E5
:101800001A8219821C821B8249CB8CE992E00E94C9
:101810009E04882309F457C08AE392E00E946A0478
:101820000E9446040E94870410E000E080917C033F
:1018300090917D03801791070CF445C00E948704A6
:1018400060E08BE00E94F60160E082E00E94F60119
:1018500060E083E00E94F60160E084E00E94F6010F
:1018600061E085E00E94F6016EEE72E080E090E0BB
:101870000E947A020E94D201892B29F160E085E062
:101880000E94F6010E9487046EEE72E080E090E014
:101890000E947A020E94D201892BA9F00E9487043B
:1018A00060E086E00E94F60160E087E00E94F601B9
:1018B00060E089E00E94F60160E08AE00E94F601A3
:1018C0000F5F1F4FB3CF80EA92E00E949E048823EF
:1018D00091F18AE392E00E946A040E9446040E9409
:1018E000870460E08BE00E94F60161E082E00E94E4
:1018F000F60160E083E00E94F60160E084E00E946F
:10190000F60161E085E00E94F60160E086E00E9459
:10191000F60160E087E00E94F60160E089E00E9445
:10192000F60160E08AE00E94F6018FED92E00E94ED
:101930004C03892BA1F284EA92E00E949E04882342
:1019400091F18AE392E00E946A040E9446040E9498
:10195000870461E08BE00E94F60160E082E00E9473
:10196000F60160E083E00E94F60160E084E00E94FE
:10197000F60161E085E00E94F60160E086E00E94E9
:10198000F60160E087E00E94F60160E089E00E94D5
:10199000F60160E08AE00E94F6018FED92E00E947D
:1019A0004C03892BA1F288EA92E00E949E048823CE
:1019B00009F449C08AE392E00E946A040E94460446
:1019C0000E9487040E94870461E085E00E94F6017E
:1019D00061E08BE00E94F6016EEE72E080E090E044
:1019E0000E947A020E94870460E08BE00E94F60168
:1019F0006EEE72E080E090E00E947A020E9487041E
:101A000060E082E00E94F60160E083E00E94F6015F
:101A100060E084E00E94F60160E086E00E94F6014A
:101A200060E087E00E94F60160E089E00E94F60134
:101A300060E08AE00E94F6018FED92E00E944C0384
:101A4000892B09F4BDCF8CEA92E00E949E04882382
:101A500009F449C08AE392E00E946A040E944604A5
:101A60000E9487040E94870461E085E00E94F601DD
:101A700060E08BE00E94F60161E082E00E94F601E6
:101A80006EEE72E080E090E00E947A020E9487048D
:101A900060E082E00E94F6016EEE72E080E090E08D
:101AA0000E947A020E94870460E083E00E94F601AF
:101AB00060E084E00E94F60160E086E00E94F601AA
:101AC00060E087E00E94F60160E089E00E94F60194
:101AD00060E08AE00E94F6018FED92E00E944C03E4
:101AE000892B09F4BDCF80EB92E00E949E048823ED
:101AF000B1F18AE392E00E946A040E9446040E94C7
:101B0000870460E08BE00E94F60160E082E00E94C2
:101B1000F60160E082E00E94F60160E083E00E944E
:101B2000F60160E084E00E94F60160E085E00E943A
:101B3000F60161E086E00E94F60160E087E00E9425
:101B4000F60160E089E00E94F60160E08AE00E9410
:101B5000F6018FED92E00E944C03892B81F284EB19
:101B600092E00E949E048823B1F18AE392E00E94F1
:101B70006A040E9446040E94870460E08BE00E9491
:101B8000F60160E082E00E94F60160E082E00E94DF
:101B9000F60160E083E00E94F60160E084E00E94CC
:101BA000F60160E085E00E94F60160E086E00E94B8
:101BB000F60161E087E00E94F60160E089E00E94A2
:101BC000F60160E08AE00E94F6018FED92E00E944B
:101BD0004C03892B81F20E94F103F3C888EB92E059
:101BE0000E946A048AE392E00E946A040E9446040A
:101BF0000E9487040E9422048FED92E00E944C0311
:101C0000892BB1F3E8CF80917E0390917F030097F9
:101C100011F00C94B00E0895EE0FFF1F881F8BBFBC
:101C20000790F691E02D19940F931F93CF93DF93B4
:101C30008230910510F482E090E0E0918603F0910B
:101C4000870330E020E0B0E0A0E0309799F4211560
:101C5000310509F44AC0281B390B24303105D8F569
:101C60008A819B816115710589F1FB0193838283D0
:101C7000FE0111C04081518102811381481759072B
:101C8000E0F04817590799F4109761F012960C93F9
:101C9000129713961C933296CF01DF91CF911F912B
:101CA0000F9108950093860310938703F4CF2115B5
:101CB000310551F04217530738F0A901DB019A01B1
:101CC000BD01DF01F801C1CFEF01F9CF9093870388
:101CD00080938603CDCFFE01E20FF31F8193919392
:101CE0002250310939832883D7CF20918403309142
:101CF0008503232B41F4209102023091030230939B
:101D00008503209384032091000230910102211564
:101D1000310541F42DB73EB74091040250910502C0
:101D2000241B350BE0918403F0918503E217F30740
:101D3000A0F42E1B3F0B2817390778F0AC014E5F3B
:101D40005F4F2417350748F04E0F5F1F50938503F0
:101D500040938403819391939FCFF0E0E0E09CCF88
:101D6000CF93DF930097E9F0FC0132971382128240
:101D7000A0918603B0918703ED0130E020E0109739
:101D8000A1F420813181820F931F2091840330912F
:101D900085032817390709F061C0F0938503E093A4
:101DA0008403DF91CF910895EA01CE17DF07E8F5AC
:101DB0004A815B819E0141155105B1F7E901FB8321
:101DC000EA8349915991C40FD51FEC17FD0761F4BF
:101DD000808191810296840F951FE9019983888300
:101DE000828193819B838A83F0E0E0E012968D915B
:101DF0009C9113970097B9F52D913C911197CD01C6
:101E00000296820F931F2091840330918503281737
:101E1000390739F6309751F51092870310928603EF
:101E2000B0938503A0938403BCCFD383C283408146
:101E30005181840F951FC817D90761F44E5F5F4F1A
:101E400088819981480F591F518340838A819B81E2
:101E5000938382832115310509F0B0CFF093870376
:101E6000E09386039ECFFD01DC01C0CF1382128276
:101E7000D7CF4F925F926F927F928F929F92AF9245
:101E8000BF92CF92DF92EF92FF920F931F93CF9367
:101E9000DF938C01009799F4CB01DF91CF911F91D3
:101EA0000F91FF90EF90DF90CF90BF90AF909F90F9
:101EB0008F907F906F905F904F900C94140EFC0168
:101EC000E60FF71F9C0122503109E217F30708F4CF
:101ED000AEC0D901CD91DC911197C617D70720F17B
:101EE000C530D10578F0CE0104978617970750F0DA
:101EF000C61BD70B2297C193D1936D937C93CF01CF
:101F00000E94B00EC801DF91CF911F910F91FF90F9
:101F1000EF90DF90CF90BF90AF909F908F907F9089
:101F20006F905F904F9008955B01AC1ABD0A4C0111
:101F30008C0E9D1EA0918603B0918703512C412CDD
:101F4000F12CE12C109731F5809184039091850359
:101F50008815990509F05CC04616570608F058C068
:101F60008091000290910102009741F48DB79EB7D5
:101F70004091040250910502841B950BE817F90764
:101F800008F055C0F0938503E0938403F901718351
:101F90006083B8CF8D919C91119712966C90129797
:101FA00013967C901397A815B90559F56C0142E07A
:101FB000C40ED11CCA14DB0420F1AC014A195B0920
:101FC000DA011296159780F0628273825183408302
:101FD000D9016D937C93E114F10471F0D70113964C
:101FE000FC93EE9312978ECF22968C0F9D1FF901D2
:101FF00091838083F301EFCFF0938703E09386030F
:1020000081CF4816590608F42C017D01D3019ACFDF
:10201000CB010E94140E7C01009749F0AE01B8017B
:102020000E941A10C8010E94B00E87016BCF10E009
:1020300000E068CFFB01DC0102C001900D9241502D
:102040005040D8F70895FB01DC018D910190801973
:102050000110D9F3990B0895FB01DC0101900D9259
:102060000020E1F7089511E0C7E3D1E000E006C0E9
:10207000802FFE010E940C0E2196011DC833D1074E
:0A20800080E00807A9F7F894FFCFED
:10208A00000088038000000000008403AE02DB0227
:10209A00D1034C03EA023E030D0A0057796B7279A9
:1020AA00746F207A616AC499746FC59BC4872C20A7
:1020BA0057796761737A6F6E6F00506F64616A2037
:1020CA007379676E61C58220646F207779C59B77C3
:1020DA006965746C656E6961203A20005332005359
:1020EA003300533400533500533600533700533806
:1020FA0000533900533130005331306100533131CC
:10210A00005331316100533132005331326100538F
:10211A003133005331336100537A3100537A32003C
:10212A0053703100537032005370330053703400CF
:10213A004D7331004D7332004B6F6D656E646120D3
:10214A006E69657A6E616E61212057796761737A6B
:06215A006F6E6F2E000005
:00000001FF
